:100000001CC10000E5C60000B8C600008BC6000099
:100010005EC6000031C6000004C60000D7C500005F
:10002000AAC500003AC1000038C1000036C1000076
:1000300034C1000032C1000030C100002EC10000F8
:100040002CC100002AC1000028C1000026C1000008
:1000500024C1000022C1000020C1000042C50000F0
:100060001CC1000008C50000DDC4000016C100006E
:1000700014C1000012C1000010C100000EC1000038
:100080000CC100000AC1000008C1000006C1000048
:1000900004C1000002C1000000C10000FEC0000059
:1000A000FCC00000FAC00000F8C00000F6C000006C
:1000B000F4C00000F2C00000F0C00000EEC000007C
:1000C000ECC00000EAC00000E8C00000E6C000008C
:1000D000E4C00000E2C00000E0C00000DEC000009C
:1000E000DCC00000810189016101690171017901B0
:1000F000910199012B032E031D03210325036503A1
:10010000320336033C03400344034A034E035203C5
:10011000650358035C0360030000220025002800EB
:100120002B002E00310034000201000005010801FF
:100130000B0100002100240027002A002D003000C0
:10014000330001010000040107010A010000200042
:100150002300260029002C002F003200000100009F
:10016000030106010901050505050705080808083A
:10017000020202020A0A080804040404010101013F
:10018000010101010303030303030303040707073A
:100190000C0C0C0C0C0C0C0C0202020206060606DF
:1001A000060606060B0B0B0B0B0B0B0B01021020AC
:1001B000200808102040102040800201020108049D
:1001C0000201010204081020408080402010080431
:1001D000020180040201804020100804020108048A
:1001E00002010102040810204080010204081020CE
:1001F000408000000A0B02090C0D0E0807030401E1
:1002000000000000000000000000000000000000EE
:1002100000000000000000000000000000001211BB
:1002200010000000000000000000000000000000BE
:100230000000000000000000130711241FBECFEFD4
:10024000D1E2DEBFCDBF00E00CBF23E0A6E5B2E007
:1002500001C01D92AB35B207E1F712E0A0E0B2E0B9
:10026000EEEBF2E100E00BBF02C007900D92A63565
:10027000B107D9F711E0CDE1D1E000E006C0219748
:100280000109802FFE010E945109CC31D10780E085
:100290000807A9F733D60C945D09B2CEE82FF0E039
:1002A000EE0FFF1FE050FE4F7183608390E08830B7
:1002B000910508F045C0FC018827EE58FF4F8F4F8D
:1002C000F0C7809169008C7F816080936900E89A13
:1002D000089580916900837F846080936900E99A22
:1002E0000895809169008F7C806180936900EA9A0B
:1002F0000895809169008F73806480936900EB9A00
:10030000089580916A008C7F816080936A00EC9AE6
:10031000089580916A00837F846080936A00ED9ADB
:10032000089580916A008F7C806180936A00EE9AC4
:10033000089580916A008F73806480936A00EF9AB9
:100340000895E9E6F2E0A089B18982E08C93A48562
:10035000B5851C92A685B78580E18C93108EA48903
:10036000B58986E08C93A289B3898C9180618C9346
:10037000A289B3898C9188608C93A289B3898C916E
:1003800080688C930288F389E02D80818F7D808343
:100390000895CF92DF92EF92FF920F931F93CF9326
:1003A000DF936C017A018B01C0E0D0E0CE15DF0550
:1003B00089F0D8016D918D01D601ED91FC910190EC
:1003C000F081E02DC6011995892B11F47E0102C040
:1003D0002196ECCFC701DF91CF911F910F91FF9034
:1003E000EF90DF90CF900895089580E090E0089519
:1003F000FC01538D448D252F30E0842F90E0821B2B
:10040000930B541710F0CF96089501970895FC01AF
:10041000918D828D981761F0828DDF01A80FB11D3B
:100420005D968C91928D9F5F9F73928F90E008955F
:100430008FEF9FEF0895FC01918D828D981731F019
:10044000828DE80FF11D858D90E008958FEF9FEF6D
:100450000895FC01918D228D892F90E0805C9F4F43
:10046000821B91098F739927089589E692E0F1DF45
:1004700021E0892B09F420E0822F0895FC01848D6E
:10048000DF01A80FB11DA35ABF4F2C91848D90E0BE
:1004900001968F739927848FA689B7892C93A08999
:1004A000B1898C9180648C93938D848D981306C050
:1004B0000288F389E02D80818F7D80830895EF92FB
:1004C000FF920F931F93CF93DF93EC0181E0888F0E
:1004D0009B8D8C8D981305C0E889F989808185FDF5
:1004E00023C0F62E0B8D10E00F5F1F4F0F731127E7
:1004F000E02E8C8DE8120BC00FB607FCFACFE8890E
:10050000F989808185FFF5CFCE01B8DFF2CF8B8DE1
:10051000FE01E80FF11DE35AFF4FF0820B8FEA89CD
:10052000FB898081806207C0EE89FF896083E8894A
:10053000F98980818064808381E090E0DF91CF91B0
:100540001F910F91FF90EF900895CF93DF93EC01EF
:10055000888D8823C1F0EA89FB89808185FD05C0EB
:10056000A889B9898C9186FD0EC00FB607FCF5CF1E
:10057000808185FFF2CFA889B9898C9185FFEDCF65
:10058000CE017CDFE8CFDF91CF91089580E090E04D
:10059000892B19F06ADF811125C080E090E0892B5A
:1005A00041F080E090E0892B21F00E940000811151
:1005B0001CC080E090E0892B41F080E090E0892B26
:1005C00021F00E940000811113C080E090E0892B8F
:1005D000A1F080E090E0892B81F00E940000811161
:1005E0000AC008950E940000D8CF0E940000E1CF09
:1005F0000E940000EACF0C940000089590E0FC01F6
:10060000EE50FE4F4491FC01E455FE4F2491FC0155
:10061000EA59FE4F9491992309F466C0442309F4E2
:1006200054C050E0FA013197E231F10508F04DC0B5
:100630008827E658FF4F8F4F34C6809180008F7710
:1006400007C0809180008F7D03C080918000877FEC
:10065000809380003AC084B58F7702C084B58F7DC7
:1006600084BD33C08091B0008F7703C08091B0000B
:100670008F7D8093B00029C0809190008F7707C054
:10068000809190008F7D03C080919000877F809340
:1006900090001BC08091A0008F7707C08091A000C0
:1006A0008F7D03C08091A000877F8093A0000DC044
:1006B000809120018F7707C0809120018F7D03C03A
:1006C00080912001877F80932001E92FF0E0EE0FD9
:1006D000FF1FE45BFE4FA591B491EC912E2381E0C6
:1006E00090E021F480E0089580E090E00895CF93B9
:1006F000DF9390E0FC01E455FE4F2491FC01EA59A0
:10070000FE4F8491882361F190E0880F991FFC01CE
:10071000EE5CFE4FC591D491FC01E85EFE4FA591C1
:10072000B491611109C09FB7F89488812095822304
:100730008883EC912E230BC0623061F49FB7F8944C
:100740003881822F809583238883EC912E2B2C93E4
:100750009FBF06C08FB7F894E8812E2B28838FBFE8
:10076000DF91CF9108952FB7F89460915D02709159
:100770005E0280915F02909160022FBF08958F9278
:100780009F92AF92BF92CF92DF92EF92FF926B0156
:100790007C01E9DF4B015C01C60ED71EE81EF91E85
:1007A000E2DF681579058A059B0528F0C616D7068D
:1007B000E806F906A8F7FF90EF90DF90CF90BF9082
:1007C000AF909F908F900895089573D5611571052E
:1007D00079F0FB0101900020E9F73197AF01461B4A
:1007E000570BDC01ED91FC910280F381E02D19940F
:1007F00080E090E008954F925F926F927F92EF9227
:10080000FF920F931F93CF93DF93CDB7DEB7A197DE
:100810000FB6F894DEBF0FBECDBF7C01FA01CB014D
:1008200019A2223008F42AE08E010F5D1F4F422EDC
:10083000512C612C712CBF01A301920110D5F9013B
:10084000CA01015011096A3014F4605D01C0695C8D
:10085000D8016C93232B242B252B69F7B801C701F2
:10086000B5DFA1960FB6F894DEBF0FBECDBFDF9106
:10087000CF911F910F91FF90EF907F906F905F90BD
:100880004F9008958F929F92AF92BF92CF92DF9236
:10089000EF92FF921F93CF93DF9380914E03AEDED2
:1008A000F82E80914F03AADE182F80915203909169
:1008B0005003882331F18F2D20915103F91202C08A
:1008C000121779F134E0239FF001112448E0949F3E
:1008D000900111242E2B212BEF2DEE0FE22BE15056
:1008E000EE30C8F4F0E0E05FFD4FC0810C2E000C4C
:1008F000DD0B8130C1F41130B1F4209709F05AC0FA
:1009000012C0913071F4F1100CC0112309F450C0E1
:10091000CFEFDFEF4FC0813009F074C0113009F024
:1009200071C0C0E0D0E0F0925003109351032097C3
:1009300009F46CC08091560290915702C80FD91FDC
:10094000D0935702C0935602C0905602D0905702DF
:100950000D2C000CEE08FF08F7FE14C0E0916902B0
:10096000F0916A020190F081E02D6DE289E692E05B
:10097000199544275527BA014C195D096E097F095D
:100980002AE003C02AE0B701A60189E692E033DF3E
:100990006FE372E089E692E0DF91CF911F91FF90C3
:1009A000EF90DF90CF90BF90AF909F908F900ECF41
:1009B000C1E0D0E0D8DE8090530390905403A09023
:1009C0005503B0905603AB014819590920915703BC
:1009D000309158032417350764F020915903309162
:1009E0005A03AE01429FE001439FD00D529FD00DAC
:1009F0001124609353037093540380935503909391
:100A0000560391CFF092500310935103DF91CF9191
:100A10001F91FF90EF90DF90CF90BF90AF909F908D
:100A20008F9008951F920F920FB60F9211240BB65C
:100A30000F922F933F934F935F936F937F938F9377
:100A40009F93AF93BF93EF93FF9389E692E016DDF8
:100A5000FF91EF91BF91AF919F918F917F916F9196
:100A60005F914F913F912F910F900BBE0F900FBE52
:100A70000F901F9018951F920F920FB60F9211248E
:100A80000BB60F922F938F939F93EF93FF93E09169
:100A90007902F0917A028081E0917F02F0918002E8
:100AA00082FD12C09081809182028F5F8F732091AE
:100AB0008302821751F0E0918202F0E0E759FD4F86
:100AC000958F8093820201C08081FF91EF919F9169
:100AD0008F912F910F900BBE0F900FBE0F901F9014
:100AE00018951F920F920FB60F9211242F933F93D8
:100AF0008F939F93AF93BF9380915D0290915E021D
:100B0000A0915F02B091600230915C0223E0230F5C
:100B10002D3720F40196A11DB11D05C026E8230F35
:100B20000296A11DB11D20935C0280935D029093FB
:100B30005E02A0935F02B093600280915802909190
:100B40005902A0915A02B0915B020196A11DB11DFC
:100B50008093580290935902A0935A02B0935B027B
:100B6000BF91AF919F918F913F912F910F900FBEA9
:100B70000F901F9018951F920F920FB60F9211248D
:100B80000BB60F922F933F934F935F936F937F9387
:100B90008F939F93AF93BF93EF93FF93E0910E02D8
:100BA000F0910F021995FF91EF91BF91AF919F9135
:100BB0008F917F916F915F914F913F912F910F9006
:100BC0000BBE0F900FBE0F901F9018951F920F92A3
:100BD0000FB60F9211240BB60F922F933F934F93A2
:100BE0005F936F937F938F939F93AF93BF93EF9395
:100BF000FF93E0910C02F0910D021995FF91EF9196
:100C0000BF91AF919F918F917F916F915F914F9124
:100C10003F912F910F900BBE0F900FBE0F901F9022
:100C200018951F920F920FB60F9211240BB60F92C8
:100C30002F933F934F935F936F937F938F939F93E4
:100C4000AF93BF93EF93FF93E0910202F091030201
:100C50001995FF91EF91BF91AF919F918F917F91E6
:100C60006F915F914F913F912F910F900BBE0F901D
:100C70000FBE0F901F9018951F920F920FB60F92F4
:100C800011240BB60F922F933F934F935F936F9363
:100C90007F938F939F93AF93BF93EF93FF93E091D5
:100CA0000002F09101021995FF91EF91BF91AF9170
:100CB0009F918F917F916F915F914F913F912F9174
:100CC0000F900BBE0F900FBE0F901F9018951F92A4
:100CD0000F920FB60F9211240BB60F922F933F93E2
:100CE0004F935F936F937F938F939F93AF93BF9334
:100CF000EF93FF93E0910A02F0910B021995FF9197
:100D0000EF91BF91AF919F918F917F916F915F9183
:100D10004F913F912F910F900BBE0F900FBE0F90F0
:100D20001F9018951F920F920FB60F9211240BB6B9
:100D30000F922F933F934F935F936F937F938F9374
:100D40009F93AF93BF93EF93FF93E0910802F091CD
:100D500009021995FF91EF91BF91AF919F918F91EA
:100D60007F916F915F914F913F912F910F900BBEAB
:100D70000F900FBE0F901F9018951F920F920FB6F5
:100D80000F9211240BB60F922F933F934F935F93C3
:100D90006F937F938F939F93AF93BF93EF93FF9343
:100DA000E0910602F09107021995FF91EF91BF9132
:100DB000AF919F918F917F916F915F914F913F91F3
:100DC0002F910F900BBE0F900FBE0F901F90189594
:100DD0001F920F920FB60F9211240BB60F922F9302
:100DE0003F934F935F936F937F938F939F93AF93B3
:100DF000BF93EF93FF93E0910402F09105021995E0
:100E0000FF91EF91BF91AF919F918F917F916F91E2
:100E10005F914F913F912F910F900BBE0F900FBE9E
:100E20000F901F901895CF93DF93E9E6F2E01382BD
:100E3000128288EE93E0A0E0B0E084839583A683DD
:100E4000B78382E292E09183808385EC90E095877E
:100E5000848784EC90E09787868780EC90E0918B84
:100E6000808B81EC90E0938B828B82EC90E0958B71
:100E7000848B86EC90E0978B868B118E128E138E6E
:100E8000148EE6E0F3E01682178210861186128631
:100E900013861486158616861786108A118A128A7A
:100EA000138A148A158A62E082E021DC62E083E022
:100EB0001EDC62E474E080E0F1D962E474E081E079
:100EC000EDD9CEE4D3E082E0888383E0898382E0B9
:100ED00095DB8A8383E092DB8B831C8244DC6D8309
:100EE0007E838F83988786E490E09A87898785E060
:100EF00090E09C878B87DF91CF910895789484B59B
:100F0000826084BD84B5816084BD85B5826085BD05
:100F100085B5816085BD80916E00816080936E0093
:100F20001092810080918100826080938100809185
:100F30008100816080938100809180008160809336
:100F400080008091B10084608093B1008091B000F6
:100F500081608093B00080919100826080939100C5
:100F600080919100816080939100809190008160D8
:100F7000809390008091A10082608093A100809175
:100F8000A10081608093A1008091A0008160809386
:100F9000A000809121018260809321018091210134
:100FA00081608093210180912001816080932001E4
:100FB00080917A00846080937A0080917A008260C8
:100FC00080937A0080917A00816080937A0080918A
:100FD0007A00806880937A001092C10010924A03D0
:100FE00010924B0310924C0310924D031092080381
:100FF0001092090310920A0310920B0368EB7BE036
:1010000080E090E0BCDB89E692E090934903809316
:10101000480397D9A8DB6093080370930903809372
:101020000A0390930B0360E372E080914803909170
:101030004903CCDB6AE070E080E090E0A0DB81E077
:1010400080931C037ED984EF882E99249394A12C3D
:10105000B12C89DB672B682B692B39F484DB623078
:1010600071058105910508F4F8C07DDB6093650288
:10107000709366028093670290936802C090610249
:10108000D0906202E0906302F09064026C157D05DE
:101090008E059F0540F46093610270936202809315
:1010A000630290936402C0906102D0906202E0906B
:1010B0006302F09064029B01AC012C193D094E09BA
:1010C0005F0969017A013AEFC316D104E104F10422
:1010D00008F4C3C06093610270936202809363025C
:1010E000909364028092140390921503A0921603C9
:1010F000B0921703109218031092190310921A035A
:1011000010921B0380910C0390910D03A0910E038C
:10111000B0910F038093100390931103A0931203D7
:10112000B093130320DB60930C0370930D03809343
:101130000E0390930F0317DB60930803709309036A
:1011400080930A0390930B030EDB6B017C0162E436
:1011500072E0809148039091490338DB2AE041E036
:1011600050E060E070E0809148039091490343DBD8
:1011700069E472E0809148039091490327DB2AE0FB
:10118000B701A601809148039091490334DB6BE4D9
:1011900072E0809148039091490318DB80910C0321
:1011A00090910D03A0910E03B0910F03B701A6011A
:1011B000481B590B6A0B7B0B2AE0809148039091E6
:1011C000490319DB6BE472E0809148039091490375
:1011D000FDDA40910C0350910D0360910E03709164
:1011E0000F038091100390911103A0911203B0910D
:1011F0001303481B590B6A0B7B0B2AE080914803B1
:1012000090914903F8DA6DE472E08091480390917F
:101210004903DCDAA8DAAB01BC012AE0809148037B
:1012200090914903E8DAE0904803F09049036FE4B5
:1012300072E0C701CBDA6FE372E0C701C7DA62E0A0
:1012400070E080E090E09BDA8EDA60930C0370939C
:101250000D0380930E0390930F0398D9FACEA1E269
:101260001A2EAA1BBB1BFD010DC0AA1FBB1FEE1F20
:10127000FF1FA217B307E407F50720F0A21BB30B6B
:10128000E40BF50B661F771F881F991F1A9469F7E7
:1012900060957095809590959B01AC01BD01CF0143
:1012A0000895EE0FFF1F881F8BBF0790F691E02D6A
:0E12B000199481E090E0F89400C0F894FFCF0C
:1012BE00E403E403E403E403E403E403E403E403E8
:1012CE0001FF02FF00FE0101FE00FF02FF01000010
:1012DE0000005F02C901F801A502290207021B02E4
:1012EE00564D4450565F317C315F564D4450560D2D
:1012FE000A00564D4450455F003A323A007C005F7A
:06130E00564D445045005D
:00000001FF
